:100000000C949E000C94C0000C94C0000C94C00092
:100010000C94C0000C94C0000C94C0000C94C00060
:100020000C94C0000C94C0000C94C0000C94C00050
:100030000C94C0000C94C0000C94C0000C94CD191A
:100040000C94C0000C94CA1B0C94C0000C94C0000B
:100050000C94C0000C94C0000C94C0000C94C00020
:100060000C94C0000C94F5040C94BD020C94C000D8
:100070000C94C0000C94C0000C94C0000C94C00000
:100080000C94C0000C94C0000C94C0000C94C000F0
:100090000C94C0000C94C0000C94C0000C94C000E0
:1000A0000C94C0000C94C0000C94C0000C94C000D0
:1000B0000C94C0000C94C0000C94C0000C94C000C0
:1000C0000C94C0000C94C0000C94C0000C94C000B0
:1000D0000C94C0000C94C0000C94C0000C94C000A0
:1000E0000C94C0000A0023204C6173617572477242
:1000F000626C2031342E3031005631342E303100D4
:10010000494E46494E4954594E414ECDCCCC3D0AFC
:10011000D7233C17B7D13877CC2B329595E6241FDF
:10012000B14F0A000020410000C84200401C462098
:10013000BCBE4CCA1B0E5AAEC59D740011241FBE16
:10014000CFEFD1E2DEBFCDBF00E00CBF12E0A0E0F8
:10015000B2E0E4E3F7E400E00BBF02C007900D92C9
:10016000A834B107D9F71BBE12E1A8E4B2E001C080
:100170001D92A633B107E1F70E943A020C9498232E
:100180000C940000A0E0B0E0E8ECF0E00C946723F1
:10019000EC015B016115710519F0FB01918380830E
:1001A000F9908F2D90E00E945623892BC9F7FDE22C
:1001B000FF1621F4F990EE24E39405C02BE2F21629
:1001C00009F4F990EE248E0101501040C80160E05E
:1001D00071E043E050E00E942202892B01F58E017C
:1001E0000E5F1F4FC80163E071E045E050E00E94E0
:1001F0002202892B19F48E01095F1F4FA114B1044B
:1002000019F0F50111830083E0FC04C070E090E078
:1002100080E814C070E090E080E86FEF08C1C8018A
:1002200068E071E043E050E00E942202892B69F40B
:10023000A114B10429F470E090E080EC6FE7F7C0FE
:100240002296F501D183C083F6CF8824992440E01B
:1002500050E060E070E0EF2DE053EA30A0F5F2E00E
:10026000EF2A8E2D90E09C0128703070E2FE06C0CF
:10027000232B79F50894811C911C2BC0232B19F09A
:10028000089481089108DB01CA0112E0880F991FC8
:10029000AA1FBB1F1A95D1F7480F591F6A1F7B1F52
:1002A000440F551F661F771F4E0F511D611D711D95
:1002B000483929E9520729E9620729E1720748F01C
:1002C00084E0E82A06C0EE3F31F4E3FC39C098E050
:1002D000E92AF990C0CFE53311F0E53189F529918C
:1002E0002D3219F4E0E1EE2A05C02B3219F081E03D
:1002F00090E003C0299182E090E0E22FE053EA30E1
:1003000018F0C81BD90B1CC020E030E0FCE02038FE
:100310003F075CF4C901880F991F880F991F280FA8
:10032000391F220F331F2E0F311DE991E053EA30A0
:1003300068F3E4FE03C0309521953F4F820E931E73
:10034000CE2CDD24E1FE07C0A114B10421F02197D9
:10035000F501D183C083CB01BA010E941B217B012F
:100360008C01F3E0CF22DD2423E0C216D10421F476
:1003700017FB109517F9109557016801C801B701CF
:1003800020E030E040E050E00E947E20882309F425
:100390004AC097FE0DC02FE1E22E21E0F22E90948C
:1003A000819491089394C0E2D0E000E010E012C084
:1003B00097E3E92E91E0F92EF6CFF70125913591DB
:1003C00045915491C601B5010E9456225B016C0112
:1003D0008C1A9D0A8C169D0684F7D595C7950F5FDC
:1003E0001F4F0630110529F08CEF9FEFE80EF91E24
:1003F000F1CFC501D6017C018D018C2D880F8D2D8B
:10040000881F8F3F51F0C601B50120E030E040E089
:1004100050E00E947E20882331F482E290E09093A5
:100420003512809334127E2D9F2D802F612F272F20
:10043000392F482F562FB901CA01CDB7DEB7ECE0EE
:100440000C948323FB01DC014150504088F08D91D6
:1004500081341CF08B350CF4805E659161341CF0A6
:100460006B350CF4605E861B611171F3990B089576
:10047000881BFCCF78940E944A020E9496050E9435
:100480001B0E0E94A41F0E944C190E9455190E9425
:100490003E0CFDCF1092C50080E18093C400809196
:1004A000C0008D7F8093C0008091C10080618093E7
:1004B000C1008091C10088608093C1008091C1001B
:1004C00080688093C10026EE30E017C090914A0208
:1004D0009F5F903809F490E080914B029817E1F308
:1004E000E0914A02F0E0EF59FE4E408390934A02B9
:1004F0008091C10080628093C100F9012F5F3F4F5E
:100500004491442319F724EE30E017C090914A0239
:100510009F5F903809F490E080914B029817E1F3C7
:10052000E0914A02F0E0EF59FE4E408390934A0278
:100530008091C10080628093C100F9012F5F3F4F1D
:100540004491442319F70895282F90914A029F5F00
:10055000903809F490E080914B029817E1F3E09114
:100560004A02F0E0EF59FE4E208390934A028091B8
:10057000C10080628093C10008951F920F920FB650
:100580000F920BB60F9211248F939F93EF93FF93CB
:1005900090914B0280914C02882331F082E180934C
:1005A000C60010924C020DC0E92FF0E0EF59FE4E4C
:1005B00080818093C6009F5F903809F490E090930B
:1005C0004B0280914A02981729F48091C1008F7DD7
:1005D0008093C100FF91EF919F918F910F900BBE7F
:1005E0000F900FBE0F901F90189590914902809127
:1005F00048029817D1F3E0914902F0E0EE59FF4E1E
:10060000E081809149028F5F809349028091490285
:100610008F3F11F410924902F894809100028034C7
:1006200071F480914D02882351F081E080934C0257
:100630008091C10080628093C10010924D02809130
:1006400000028F5F8093000278948E2F089580912E
:10065000000280950895DC0118C090914A029F5FC6
:10066000903809F490E080914B029817E1F31196CD
:10067000E0914A02F0E0EF59FE4E208390934A0247
:100680008091C10080628093C1002C91222329F7C0
:100690000895AC0117C020914A022F5F203809F459
:1006A00020E080914B022817E1F3E0914A02F0E04C
:1006B000EF59FE4E908320934A028091C1008062E0
:1006C0008093C100FA014F5F5F4F9491992319F70E
:1006D00008952F923F924F925F926F927F928F92E6
:1006E0009F92AF92BF92CF92DF92EF92FF920F93C1
:1006F0001F93DF93CF93CDB7DEB7A0970FB6F894D3
:10070000DEBF0FBECDBF6B017C0129013A0161152F
:10071000710581059105C9F490914A029F5F903857
:1007200009F490E080914B029817E1F3E0914A02BE
:10073000F0E0EF59FE4E80E3808390934A0280916F
:10074000C10080628093C1005DC088249924540157
:100750001E010894211C311C8101080D191DC701BF
:10076000B601A30192010E943423F801608308942A
:10077000811C911CA11CB11CC701B601A3019201EF
:100780000E943423C901DA016C017D01C114D10436
:10079000E104F10409F7A101480D591D7E010894F7
:1007A000E11CF11CD501C4010197A109B109BC01EB
:1007B0006819790924C0FB01E40FF51FE081EA30D4
:1007C00018F43E2F305D02C03E2F395C20914A0262
:1007D0002F5F203809F420E080914B022817E1F3C5
:1007E000E0914A02F0E0EF59FE4E308320934A0236
:1007F0008091C10080628093C10041505040E41656
:10080000F506C9F6A0960FB6F894DEBF0FBECDBFB1
:10081000CF91DF911F910F91FF90EF90DF90CF90DC
:10082000BF90AF909F908F907F906F905F904F9010
:100830003F902F9008959B01AC0197FF1FC09091AE
:100840004A029F5F903809F490E080914B0298171C
:10085000E1F3E0914A02F0E0EF59FE4E8DE2808331
:1008600090934A028091C10080628093C1005095AC
:100870004095309521953F4F4F4F5F4FCA01B901C9
:100880002AE030E040E050E00E9469030895AF9212
:10089000BF92CF92DF92EF92FF920F931F93CF936D
:1008A000DF937B018C0120E030E040E050E00E94CB
:1008B0007E208823E4F490914A029F5F903809F4E7
:1008C00090E080914B029817E1F3E0914A02F0E04A
:1008D000EF59FE4E8DE2808390934A028091C100D1
:1008E00080628093C10017FB109517F91095C8011D
:1008F000B7012FE632E143E05AE30E9407205B0193
:100900006C010E94EA207B010027F7FC0095102F64
:10091000C801B7012AE030E040E050E00E946903DE
:1009200090914A029F5F903809F490E080914B02C9
:100930009817E1F3E0914A02F0E0EF59FE4E8EE2A3
:10094000808390934A028091C10080628093C100AD
:10095000C801B7010E941D219B01AC01C601B50170
:100960000E940620C3E0D0E030C020E030E040E24A
:1009700051E40E9456227B018C010E94EA202091C2
:100980004A022F5F203809F420E080914B0228179B
:10099000E1F3E0914A02F0E0EF59FE4E605D6083C2
:1009A000605320934A028091C10080628093C1000D
:1009B00070E0882777FD8095982F0E941D219B016C
:1009C000AC01C801B7010E94062021972FEFCF3F4D
:1009D000D20759F6DF91CF911F910F91FF90EF90C1
:1009E000DF90CF90BF90AF9008951F920F920FB6F7
:1009F0000F920BB60F9211242F933F934F935F9357
:100A00006F937F938F939F93AF93BF93EF93FF93D6
:100A10002091C600213211F487E024C02E3719F44A
:100A20000E9497192DC0243189F4809100028134ED
:100A300048F081E080934C028091C10080628093F5
:100A4000C1001EC081E080934D021AC0E0914802AF
:100A50009E2F9F5F9F3F09F490E080914902981775
:100A600021F481E00E948B190BC0F0E0EE59FF4E9B
:100A7000208390934802809100028150809300026D
:100A8000FF91EF91BF91AF919F918F917F916F9166
:100A90005F914F913F912F910F900BBE0F900FBE22
:100AA0000F901F901895EF92FF920F931F936091F4
:100AB00080027091810280E090E00E941B217B0106
:100AC0008C01209152023091530240915402509176
:100AD00055020E94562223E333E34BEC51E40E947B
:100AE00082200E94EF200E941B2120E030E84BE38F
:100AF00056E40E942222181684F460E074ED84E922
:100B000098E4A80197010E9482206093520270939A
:100B1000530280935402909355021F910F91FF90BE
:100B2000EF90089581E0809313030895EEE4F2E0DE
:100B300085ECDF011D928A95E9F780E090E0AAEF4D
:100B4000B5E48093520290935302A0935402B09361
:100B500055028093560290935702A0935802B09387
:100B6000590281E08093510210927F02109281021B
:100B700010928002F49680E8DF011D928A95E9F7D1
:100B8000109203031092020310927E0280E090E024
:100B9000A0EAB0E48093660290936702A093680293
:100BA000B093690280936A0290936B02A0936C02E7
:100BB000B0936D0220E030E040E050E020936E0200
:100BC00030936F02409370025093710280937202CF
:100BD00090937302A0937402B0937502809376028F
:100BE00090937702A0937802B093790220937A02CF
:100BF00030937B0240937C0250937D02109213034A
:100C00001092E11108952F923F924F925F926F924E
:100C10007F928F929F92AF92BF92CF92DF92EF928C
:100C2000FF920F931F93DF93CF93CDB7DEB7E1977A
:100C30000FB6F894DEBF0FBECDBF2C0110924E024E
:100C400019A2EE245E010894A11CB11C06E0C02E7E
:100C5000DD24D39412E0912E06C12431310509F42C
:100C6000B5C025313105ACF42430310591F1253082
:100C700031053CF4672B79F12130310509F0EDC0E5
:100C80002EC02830310579F12A30310509F0E5C050
:100C90001DC02633310509F4A2C0273331054CF4B9
:100CA0002531310509F495C02E31310509F0D5C043
:100CB00093C02A35310509F498C02B35310509F464
:100CC00097C02733310509F0C8C08CC025E029A39F
:100CD000C6C033E082C0D0924F0241E0A7C09092DC
:100CE0004F0282E0A6C0F201EE0DF11D8081843436
:100CF00011F09CE0A5C0D2010D900020E9F78D0114
:100D00000150104004191509E394AE2CBB240A19B4
:100D10001B096801EE24FF248091020390910303D4
:100D2000A0E0B0E08C0D9D1DAE1DBF1D8050944015
:100D3000A040B04030F4F7E4CF16D104E104F10450
:100D400028F081E080934E020E948B19B2016A0D57
:100D50007B1D40E050E0B1E0AB2EB12C24C02091CF
:100D6000020330910303DB018C918133C1F4FA015A
:100D7000E20FF31FA3E0F695E795AA95E1F7F0E0FF
:100D8000E25BFD4F842F820F8770950102C0220F16
:100D9000331F8A95E2F7C90124A9282B24AB4F5FA2
:100DA0005F4F6F5F7F4FCA01A0E0B0E08C159D05DB
:100DB000AE05BF05A0F28091020390910303080FD6
:100DC000191F10930303009302033DC5D0925002F4
:100DD00046C01092500243C034E039A340C0109284
:100DE0007E023DC0D0927E023AC0D092510237C0FE
:100DF0001092510234C020353105D1F02135310532
:100E000054F4233031054CF125303105A4F0253060
:100E1000310519F517C022353105C9F022353105E4
:100E200024F023353105C9F415C047E049A317C0A4
:100E300086E089A314C010928102109280029DE086
:100E400099A30DC0109281021092800208C0A8E000
:100E5000A9A305C0B9E0B9A302C0C0924E02809117
:100E60004E02882359F5F201EE0DF11DF080FF20AE
:100E700029F18F2D81548A3110F085E01DC0E39453
:100E800082010E0D111DC801B5010E94C200298109
:100E90003A812017310779F0E22EE4180E940723E7
:100EA0000E94EA209B01E7E4FE1609F4D6CEFDE499
:100EB000FF16A9F6A0CF84E080934E0280914E02E7
:100EC000882309F0C2C4FE013F968CE0DF011D9229
:100ED0008A95E9F7DE011396EAE5F2E08CE00190ED
:100EE0000D928150E1F71EA61FA6B0E8B8ABEFEB5C
:100EF000E9AB2FEF3FEF38A32F8F1AA61BA61CA636
:100F00001DA6222433241E8E1D8E772490E0DFC080
:100F1000C701B60123E333E34BEC51E40E945622B0
:100F20004B015C0130E5631609F499C0361564F095
:100F30004CE4641609F4BAC08EE46816B1F096E485
:100F4000691609F0C2C018C0A3E56A1609F499C071
:100F5000A6152CF0B2E56B1609F0B7C0B0C0862D0F
:100F60008855833008F0B1C02AC0D701C601CEA68B
:100F70009FA7A8ABB9ABA9C0C501B40120E030E080
:100F800040E050E00E947E2018161CF0E4E0E09360
:100F90004E0280914F02813049F480925602909225
:100FA0005702A0925802B09259028FC0809252020A
:100FB00090925302A0925402B09255026DC0F9A1D2
:100FC000FC30B1F180915102E62DFF27E7FDF0954D
:100FD000882389F0E855F040EE0FFF1FEE0FFF1F4A
:100FE00021E030E02C0F3D1FE20FF31F828293823D
:100FF000A482B5821DC08F0108551040000F111F3B
:10100000000F111F81E090E08C0F9D1F080F191F2A
:10101000D80112966D917D918D919C911597A501A6
:1010200094010E940720F80162837383848395836F
:10103000E62DFF27E7FDF095E855F040EE0FFF1F86
:10104000EE0FFF1F21E030E02C0F3D1FE20FF31FDA
:1010500086869786A08AB18A7724739436C039A190
:10106000353039F0D701C601CAA69BA7ACA7BDA7EA
:101070002CC0C701B6010E9407230E94EA201B0171
:1010800024C049A14D3059F4C701B6010E94EF2098
:1010900070938102609380020E94530516C0C701BD
:1010A000B6010E94EF2060937F020FC0C701B60116
:1010B0000E9407230E94EA207E8F6D8F06C0C70121
:1010C000B6010E94EA2078A36F8F9B8D9419F201DC
:1010D000E90FF11D6080662021F1862D81548A314F
:1010E00010F085E01CC09F5F8201090F111DC8012F
:1010F000BE016F5F7F4F0E94C2006B017C0189813E
:101100009A819C8F8B8F8017910741F080915002BC
:10111000882309F0FDCE4601570104CF84E0809377
:101120004E0280914E02882309F08FC399A1953019
:1011300009F459C2963088F4923009F476C093309D
:1011400020F4913009F076C31DC0A9A1A33009F4A1
:10115000D6C1A43009F06EC3DBC1B9A1B83009F41F
:1011600064C3B93038F4B63009F45BC3B73009F062
:1011700061C359C3E9A1E93009F459C3EC3009F05E
:1011800059C3B4C0772009F455C320917E0283E08F
:10119000289F800111240F920F922DB73EB72F5F29
:1011A0003F4F3BA32AA3F801EE0FFF1FEE0FFF1FD7
:1011B000EA59FD4F6B817C818D819E812081318137
:1011C000428153810E9407201B012C01000F111F37
:1011D000000F111FF801E659FD4F6F817885898551
:1011E0009A8520813181428153810E9407203B01F1
:1011F0004C0102591D4F6B857C858D859E85D801DC
:101200002D913D914D915C910E9407207B018C01B5
:10121000A0905602B0905702C0905802D090590248
:10122000EAA1FBA111821082D8C1772009F402C380
:1012300020917E0283E0289F800111240F920F925B
:101240002DB73EB72F5F3F4F3DA32CA3F801EE0F04
:10125000FF1FEE0FFF1FEA59FD4F6B817C818D81CF
:101260009E8120813181428153810E9407201B0190
:101270002C01000F111F000F111FF801E659FD4F3F
:101280006F81788589859A8520813181428153815A
:101290000E9407203B014C0102591D4F6B857C8544
:1012A0008D859E85D8012D913D914D915C910E9437
:1012B00007207B018C01A0905202B0905302C09095
:1012C0005402D09055028091800290918102ECA14D
:1012D000FDA191838083C201B101A401930180909B
:1012E0007F020E9423150F900F90A4C2772051F126
:1012F0008F859889A989BA8980930A0390930B03F3
:10130000A0930C03B0930D038B899C89AD89BE8992
:1013100080930E0390930F03A0931003B0931103D7
:101320006F89788D898D9A8D20E030E040E050E023
:101330000E947E20882324F481E08093050302C06C
:10134000109205036AA57BA58CA59DA520E030E041
:1013500040E050E00E942222181664F48AA59BA562
:10136000ACA5BDA58093060390930703A093080343
:10137000B09309032F8D38A137FD02C020931203CB
:101380006EA57FA588A999A920E030E040E050E053
:101390000E94222288230CF44DC280910203909176
:1013A0000303892B09F49FC020917E0283E0289FCC
:1013B000800111240F920F928DB79EB701969FA3C3
:1013C0008EA3F801EE0FFF1FEE0FFF1FEA59FD4F2E
:1013D0006B817C818D819E8120813181428153810D
:1013E0000E9407201B012C01000F111F000F111F6D
:1013F000F801E659FD4F6F81788589859A852081AE
:101400003181428153810E9407203B014C010259E6
:101410001D4F6B857C858D859E85D8012D913D91D5
:101420004D915C910E9407207B018C01A09052029B
:10143000B0905302C0905402D090550282E892E0DE
:10144000EEA1FFA191838083C201B101A4019301A8
:1014500080907F020E9450150F900F9060910A03B8
:1014600070910B0380910C0390910D0320E030E00C
:1014700040E050E00E947E20882399F06F817885BB
:1014800089859A85209106033091070340910803CE
:10149000509109030E9407206F83788789879A8774
:1014A00022C060910E0370910F0380911003909100
:1014B000110320E030E040E050E00E947E208823CD
:1014C00091F06B817C818D819E812091060330910A
:1014D000070340910803509109030E9406206B8383
:1014E0007C838D839E83109203031092020380E815
:1014F000E2E8F2E0DF011D928A95E9F79BC16AA557
:101500007BA58CA59DA540917F020E947E0D92C176
:101510000E94DA1A8CE0EAE5F2E0DF01282F1D9242
:101520002A95E9F7FE013396DF011D928A95E9F7C6
:1015300060E070E080E090E09B01AC017B018C01F9
:101540000E94B30D10927E02EB82FC820D831E83FB
:10155000EF82F88609871A87EB86FC860D871E873F
:101560000F920F92EDB7FEB73196F9A7E8A76091F9
:101570006602709167028091680290916902A801E9
:1015800097010E9407201B012C0160916A02709153
:101590006B0280916C0290916D02A80197010E94EC
:1015A00007203B014C0160916E0270916F028091A7
:1015B000700290917102A80197010E9407207B019F
:1015C0008C01A0905602B0905702C0905802D09063
:1015D0005902A8A5B9A51D921C92C201B101A4018E
:1015E000930188247ECEB2E02B16310408F022C18C
:1015F000ED8DFE8D329709F095C0F101EE0FFF1FC2
:10160000E20DF31DEE0FFF1FEE0FFF1F86E6C82E43
:1016100082E0D82ECE0EDF1E2B813C814D815E8173
:10162000D6012D933D934D935C9313971AE6A12E0B
:1016300012E0B12EAE0EBF1E2F81388549855A8526
:10164000D5012D933D934D935C931397EB84FC84CC
:101650000D851E85E259FD4FE082F18202831383DE
:1016600020917E0283E0289F40011124F401EE0FB7
:10167000FF1FEE0FFF1FEA59FD4F60915A02709154
:101680005B0280915C0290915D02208131814281F8
:1016900053810E940720F6012081318142815381CC
:1016A0000E9406206B837C838D839E83880C991C0B
:1016B000880C991CF401E659FD4F60915E0270910F
:1016C0005F028091600290916102208131814281AC
:1016D00053810E940720D5012D913D914D915C9140
:1016E0000E9406206F83788789879A87EEE6F2E06A
:1016F0008E0E9F1E6091620270916302809164025F
:1017000090916502D4012D913D914D915C910E9483
:101710000720A80197010E9406206B877C878D8790
:101720009E8788C0ED8DFE8D749709F083C071018E
:10173000EE0CFF1CE20CF31CEE0CFF1CEE0CFF1C6D
:1017400056E6C52E52E0D52ECE0CDF1C80917E02CF
:1017500090E08C01000F111F080F191F000F111FBF
:10176000000F111F025B1D4F60915A0270915B02C6
:1017700080915C0290915D02D80158962D913D9127
:101780004D915C915B970E940720F6016083718305
:10179000828393839AE6C92E92E0D92ECE0CDF1C69
:1017A00060915E0270915F0280916002909161028F
:1017B000D8015C962D913D914D915C915F970E946F
:1017C0000720F60160837183828393832EE632E0E3
:1017D000E20EF31E609162027091630280916402D6
:1017E00090916502D80190962D913D914D915C911B
:1017F00093970E940720F70160837183828393830C
:1018000080E090E0A0E0B0E08B839C83AD83BE835A
:101810008F839887A987BA878B879C87AD87BE8778
:1018200009C081E005C082E003C083E001C084E01C
:101830000E94550EAAE5B2E0FE0133968CE00190BD
:101840000D928150E1F780914E02E1960FB6F89427
:10185000DEBF0FBECDBFCF91DF911F910F91FF90E3
:10186000EF90DF90CF90BF90AF909F908F907F9040
:101870006F905F904F903F902F9008951F93CF935C
:10188000DF93C0E0D0E00E94F502CF34D10524F010
:1018900082E00E948B190CC0813230F0FE01EE51C3
:1018A000FE4E8083219602C0209769F38A3059F753
:1018B000CE51DE4E188280911303882301F10E94DD
:1018C0009A1960935A0270935B0280935C02909322
:1018D0005D020E94AB1960935E0270935F02809379
:1018E0006002909361020E94BC196093620270933F
:1018F00063028093640290936502109213030E9426
:101900009419882379F181E092E00E942B030E94D0
:101910009119C82FD0E0C930D10519F483E092E0C5
:101920008CC0C830D10519F485E092E086C0C7307C
:10193000D10519F487E092E080C0C130D10519F4D7
:1019400089E092E07AC0C230D10519F48BE092E0D0
:1019500074C0C330D10519F48DE092E06EC08FE001
:1019600092E07CC09091E2119A3219F09E3509F014
:1019700051C08091E111882309F047C084EE91E1C4
:1019800090933312809332121091E31117FD0AC025
:1019900002970E942B0381E192E00E942B0383E0D7
:1019A0000E948B19E0913212F091331220E030E066
:1019B00008C0280F311D2038310510F02058304064
:1019C000319680818823A9F73695279520583F4F77
:1019D000812F90E02817390779F08091E2118E3538
:1019E00019F480E392E029C082EE91E10E942B037A
:1019F00083E00E948B1978C08091E2118E3509F046
:101A000073C081E08093E1116FC09A3281F510922A
:101A1000E1112DC082EE91E1909333128093321246
:101A200063C0CF010E940306C82FD0E02097F9F0D1
:101A3000C430D10529F482E392E00E942B0317C041
:101A4000C530D10519F484E392E0F7CFC630D10553
:101A500019F486E392E0F1CF88E392E00E942B0331
:101A6000BE01882777FD8095982F0E941B0410E007
:101A70008091090180FD04C08AE392E00E942B035B
:101A8000309B05C086B18695869580FD0FC0309944
:101A900004C08CE392E00E942B0386B18695869564
:101AA00080FD04C08FE392E00E942B031123A1F07C
:101AB00082E492E00E942B030E949A190E9447043C
:101AC00084E492E00E942B030E94AB190E94470419
:101AD00089EF90E00E94490386E492E00E942B0384
:101AE000DF91CF911F910895E0913212F09133125E
:101AF00080818F3309F095CF11E0BACF089590918E
:101B000014108091151020E0981321E0822F089581
:101B10009091141080911510981719F420E030E07E
:101B200008C09091151080ED989F900111242C5EB3
:101B30003C4FC90108959091141080911510981789
:101B400041F0809115108F5F803109F480E080931F
:101B5000151008951092141010921510089581E038
:101B60008093221008958F929F92AF92BF92CF924E
:101B7000DF92EF92FF920F931F9349015A0120E0E9
:101B800030E040EA52E40E9456220E94262226E1DA
:101B9000C22E20E1D22E60931610709317108093FE
:101BA000181090931910C501B40120E030E040EA0C
:101BB00052E40E9456220E942622F6013496609337
:101BC0001A10718382839383C801B7012CE137EC2B
:101BD00041E352E40E9456220E94262228E030E08F
:101BE000C20ED31E60931E10D60111967C931197DE
:101BF00012968C93129713969C9380E090E0A0E04D
:101C0000B0E080932F1090933010A0933110B093D8
:101C100032108CE0E3E2F0E1DF011D928A95E9F7F2
:101C20001F910F91FF90EF90DF90CF90BF90AF90FA
:101C30009F908F900895DF92EF92FF920F931F93E2
:101C400010921410109215103CE0D32EE6E1F0E152
:101C5000DF018D2D1D928A95E9F760E070E080EA42
:101C600090E49B01AC010F2EF0E0EF2EF0E0FF2E90
:101C7000F0E00F2FF0E01F2FF02D0E94B30D109217
:101C80002210E3E2F0E1DF011D92DA94E9F7E0923D
:101C90002F10F092301000933110109332101F91DA
:101CA0000F91FF90EF90DF900895682F80911410AE
:101CB0008F5F803109F480E0482F552747FD50950C
:101CC0008091151090E084179507D1F3809114103E
:101CD00090E020ED30E0829FF001839FF00D929F15
:101CE000F00D1124EC5EFC4F6083409314100E94B1
:101CF0007B1908958F929F92AF92BF92CF92DF92FD
:101D0000EF92FF920F931F93CF93DF93EC016B0140
:101D100088A5882309F051C0EA8CFB8C0C8D1D8DA1
:101D2000FB01B28CA38C948C858CC801B7012B2D40
:101D30003A2D492D582D0E947E2088230CF03DC05D
:101D4000C801B701A80197010E9456227B018C01AE
:101D50006AA17BA18CA19DA120E03AEB4BE55AE45E
:101D60000E9456229B01AC01C801B7010E940720C6
:101D70000E94BD227B018C016B2D7A2D892D982D1F
:101D80009701A8010E947E20882324F4EB2CFA2CD2
:101D9000092D182D6B2D7A2D892D982D9701A801CD
:101DA0000E947E20882349F0C701D801F601828F66
:101DB000938FA48FB58F81E087A3DF91CF911F917F
:101DC0000F91FF90EF90DF90CF90BF90AF909F90DA
:101DD0008F9008952F923F924F925F926F927F92D1
:101DE0008F929F92AF92BF92CF92DF92EF92FF922B
:101DF0000F931F93DF93CF93CDB7DEB768970FB6DE
:101E0000F894DEBF0FBECDBF1C016A017B01280123
:101E10003901DC0152966D917D918D919C91559780
:101E20000E941B214B015C01A70196010E945622D2
:101E30000E946B200E94EF207B018C01F10161A7C1
:101E400072A783A794A7C501B401A30192010E94C0
:101E500056220E946B200E94EF2069877A878B8729
:101E60009C87D1019D966D937D938D939C93D09784
:101E7000D1966D917D918D919C91D49720EE3EE20B
:101E800040E050E00E9415232B013C01C801B7013E
:101E90000E941B217B018C01C301B2010E941D2104
:101EA0006D837E838F839887C501B401A50194015A
:101EB0000E9456225B016C01C801B701A80197017D
:101EC0000E9456226D877E878F87988B6D817E81D9
:101ED0008F8198859B01AC010E940720698B7A8BCA
:101EE0008B8B9C8BC601B5012D853E854F8558890E
:101EF0000E94062029893A894B895C890E948220A8
:101F00000E946B200E94EA2069837A838B839C83E2
:101F100069857A858B859C850E941B219B01AC017C
:101F20000E9456226D8B7E8B8F8B988FA601950118
:101F30000E9406207B018C01709460945094409420
:101F4000411C511C611C711CC301B2010E941D2166
:101F50009B01AC010E9407209B01AC01C801B701A5
:101F60000E9482200E945821F101A684B784C08873
:101F7000D1888601750129813A814B815C81E21A01
:101F8000F30A040B150B0E94EA20A8019701261BF7
:101F9000370B480B590BDA01C90157FF4AC0C6017C
:101FA000B5010E941D219B01AC0169897A898B8949
:101FB0009C890E9456222D853E854F8558890E9416
:101FC00006202D893E894F89588D0E9407207B016C
:101FD0008C016D817E818F81988520E030E040E822
:101FE00050E40E9456229B01AC01C801B7010E9437
:101FF00082200E946B200E94EA20AC01CB01DA0112
:10200000BC01CD0197FF04C060E070E080E090E08B
:1020100069837A838B839C83A616B706C806D90684
:1020200024F4A982BA82CB82DC8280E090E0A0E036
:10203000B0E029813A814B815C81F10125AB36AB5F
:1020400047AB50AF820F931FA41FB51F81AF92AF54
:10205000A3AFB4AF68960FB6F894DEBF0FBECDBF86
:10206000CF91DF911F910F91FF90EF90DF90CF9074
:10207000BF90AF909F908F907F906F905F904F90A8
:102080003F902F9008952F923F924F925F926F92C0
:102090007F928F929F92AF92BF92CF92DF92EF92F8
:1020A000FF920F931F93DF93CF93CDB7DEB7E997DE
:1020B0000FB6F894DEBF0FBECDBF29013A01ADAA1D
:1020C000BEAACFAAD8AE89AE63962EAC3FAC6397BA
:1020D00020E030E040EA52E40E9456220E9426228C
:1020E00069837A838B839C83C301B20120E030E053
:1020F00040EA52E40E9456220E9426226D837E838B
:102100008F839887C801B7012CE137EC41E352E493
:102110000E9456220E94262269877A878B879C8795
:10212000809114108F5F803109F480E0282F3327CD
:1021300027FD30953C8F2B8F8091151090E04B8DB3
:102140005C8D84179507C1F3809122108823A1F03C
:102150000E949A193B014C010E94AB195B016C0172
:102160000E94BC197B018C01C401B301A601950139
:102170000E94B30D109222109091141080ED989F40
:10218000D0011124AC5EBC4FBA8FA98F2114310449
:1021900011F41C920CC087E0E98DFA8D8083DF0179
:1021A000DF96F10181E901900D928150E1F7E9ADEF
:1021B000A98DBA8D9696EC9396971D961C921D97B5
:1021C00029813A814B815C8129AB3AAB4BAB5CAB4B
:1021D000E0901610F090171000911810109119103F
:1021E0002E153F05400751071CF488E01D968C937F
:1021F0002D803E804F805884A0901A10B0901B1004
:10220000C0901C10D0901D102A143B044C045D0497
:1022100044F4A98DBA8D1D968C911D9780611D96F1
:102220008C9369847A848B849C8420911E103091D5
:102230001F104091201050912110621673068406E1
:1022400095062CF4E98DFA8D85858062858789A9AC
:102250009AA9ABA9BCA98E199F09A00BB10B7C014F
:102260008D01A98DBA8D1196ED92FD920D931C935F
:10227000149717FF0DC088279927DC018E199F0935
:10228000A00BB10BE98DFA8D81839283A383B48374
:10229000D201C1018A199B09AC09BD095C016D011C
:1022A000A98DBA8D1596AD92BD92CD92DC921897FC
:1022B000D7FE0DC088279927DC018A199B09AC0934
:1022C000BD09E98DFA8D85839683A783B0871301B5
:1022D0002401221A330A440A550AD201C10157FEC9
:1022E00007C088279927DC0182199309A409B50939
:1022F000E98DFA8D81879287A387B48725813681FE
:102300004781508561807280838094806216730655
:102310008406950610F439014A01681679068A0682
:102320009B0610F43C014D01A98DBA8D1E966D924D
:102330007D928D929C925197611471048104910455
:1023400009F468C3C801B7010E941D2120E030E0F4
:1023500040EA52E40E9482206DA77EA78FA798AB27
:10236000C601B5010E941D2120E030E040EA52E4A0
:102370000E94822069A77AA78BA79CA7C201B101FE
:102380000E941D212CE137EC41E352E40E9482209F
:102390006DA37EA38FA398A76DA57EA58FA598A9F1
:1023A0009B01AC010E9456227B018C0169A57AA594
:1023B0008BA59CA59B01AC010E9456229B01AC0100
:1023C000C801B7010E9407207B018C016DA17EA18D
:1023D0008FA198A59B01AC010E9456229B01AC01E4
:1023E000C801B7010E9407200E94BD227B018C0119
:1023F000E98DFA8D62A373A384A395A360E070E0D6
:1024000080E89FE3A80197010E9482201B012C0114
:102410006DA97EA98FA998ADA20191010E945622B3
:102420005B016C01C801B701A60195010E9456220B
:10243000A98DBA8D56966D937D938D939C935997E4
:10244000C401B3010E941D217B018C01A6019501ED
:102450000E9456220E946B200E94EF20E98DFA8D87
:10246000628B738B848B958BC801B701A20191019C
:102470000E94562220E03AEB4BED59E40E9456228E
:1024800020E030E84BE356E40E9482200E946B205B
:102490000E94EA20A98DBA8DD1966D937D938D937C
:1024A0009C93D4976196EEADFFAD6197309721F084
:1024B000DE96FC93EE93DD976DA57EA58FA598A97A
:1024C000A20191010E94562269A37AA38BA39CA327
:1024D00069A57AA58BA59CA5A20191010E9456220F
:1024E0006D8F7E8F8F8F98A36DA17EA18FA198A5F0
:1024F000A20191010E9456221B012C0190911410FF
:1025000080911510981709F4B1C060902F10709049
:1025100030108090311090903210B301C40120E04F
:1025200030E040E050E00E94222218160CF09EC0DD
:1025300060912310709124108091251090912610A5
:10254000905829A13AA14BA15CA10E9456227B017F
:102550008C016D8D7E8D8F8D98A1209127103091EB
:1025600028104091291050912A100E9456229B0158
:10257000AC01C801B7010E9406207B018C01C20199
:10258000B10120912B1030912C1040912D105091C1
:102590002E100E9456229B01AC01C801B7010E9477
:1025A00006207B018C0123E333E343E75FE30E94D2
:1025B0007E2088230CF05AC0A98DBA8D5696DC90E7
:1025C00056975796CC9057975896BC9058975996CF
:1025D000AC90B301C4012D2D3C2D4B2D5A2D0E94E2
:1025E0007E2087FD04C06D2C7C2C8B2C9A2CC8017E
:1025F000B70123E333E343E75FEB0E94222218167F
:10260000D4F560E070E080E89FE3A80197010E94A4
:10261000062020E030E040E05FE30E9456220E9466
:10262000BD227B018C0120E030EC48E256E40E94A0
:1026300056225B016C0160E070E080E89FE3A80136
:1026400097010E9406209B01AC01C601B5010E94C2
:1026500082200E94BD227B018C01B301C40197013D
:10266000A8010E947E2087FD06C007C0EE24FF243B
:1026700000E010E002C073018401C701D801E98DB8
:10268000FA8D868F978FA0A3B1A362A173A184A1B5
:1026900095A120E03AEB4BE55AE40E94562220E057
:1026A00030E040E050E00E9407200E94BD22D62E7C
:1026B000C72EB82EA92EB701C8012D2D3C2D4B2DAC
:1026C0005A2D0E947E2087FD04C0ED2CFC2C0B2D82
:1026D0001A2DC701D801E98DFA8D828F938FA48FAF
:1026E000B58F66897789808D918D2D2D3C2D4B2D51
:1026F0005A2D0E947E20181634F081E0A98DBA8DE3
:1027000098968C9303C0E98DFA8D10A681E0A98D6F
:10271000BA8D97968C932D8A3E8A4F8A588E2D8D2E
:102720003E8D4F8D58A1298B3A8B4B8B5C8B89A1A9
:102730009AA1ABA1BCA18D879E87AF87B88BA3E27E
:10274000B0E1FE013D968CE001900D928150E1F7E1
:10275000E98DFA8D86899789A08DB18D80932F1090
:1027600090933010A0933110B0933210FB8DF09302
:102770001410A6E1B0E1FE0131968CE001900D92BB
:102780008150E1F770901410E0E0F0E0CC24DD24FB
:1027900066246394B0ED4B2E512C7AC0772011F44F
:1027A000A0E17A2E7A94C114D10409F45EC0309766
:1027B00009F45BC0D60198968C919897882309F00C
:1027C00048C05E968C905E975F969C905F979096BF
:1027D000AC9090979196BC90E28CF38C048D158D03
:1027E000B401C501A80197010E94222218168CF598
:1027F000C801B701A80197010E9456227B018C01F4
:10280000F60162A173A184A195A120E03AEB4BE50A
:102810005AE40E9456229B01AC01C801B7010E94F4
:1028200007200E94BD22162F072FF82EE92EB40193
:10283000C501212F302F4F2D5E2D0E947E2087FD58
:1028400004C0812E902EAF2CBE2CC401D501F60100
:1028500005C0F601868D978DA0A1B1A1828F938FBF
:10286000A48FB58FD60197966C92872D992787FDF7
:102870009095FC01E49DC001E59D900DF49D900DA7
:102880001124F60174E1C72E73E0D72EC80ED91EAD
:1028900080911510272D332727FD309590E02817BC
:1028A000390709F07BCFF090151000E010E040E010
:1028B00050E060EDC62ED12C20C04115510539F0F5
:1028C0000115110521F0CA01B8010E947A0E2F2DC1
:1028D0002F5F203109F420E08F2D992787FD9095F7
:1028E000AC014C9DC0014D9D900D5C9D900D11243F
:1028F000A8018C010C5E1C4FF22E809114102F2D1C
:10290000332727FD309590E028173907B1F6411598
:10291000510539F00115110521F0CA01B8010E94D5
:102920007A0E509015108824992440ED242E312CD5
:1029300043C0229D3001239D700C329D700C1124E8
:1029400084E193E0680E791E8114910479F1D40139
:1029500097968C91882321F4F30187A1882331F184
:10296000D4015696ED90FD900D911C9159975A9671
:102970006D917D918D919C915D97A80197010E9429
:1029800082205B016C01F301628D738D848D958DC6
:10299000A80197010E9482208B019C01C401B6010D
:1029A000A5010E94EA0ED40197961C925394B0E1BF
:1029B0005B1609F45524430180911410252D33270B
:1029C00027FD309590E02817390709F0B2CFF401C0
:1029D000E688F788008D118D628D738D848D958DBD
:1029E000A80197010E9482205B016C0160E070E009
:1029F00080E090E0A80197010E9482208B019C0159
:102A0000C401B601A5010E94EA0ED40197961C925A
:102A10000E947B19E9960FB6F894DEBF0FBECDBFBA
:102A2000CF91DF911F910F91FF90EF90DF90CF90AA
:102A3000BF90AF909F908F907F906F905F904F90DE
:102A40003F902F9008958F92AF92BF92CF92DF92D6
:102A5000EF92FF920F931F93DF93CF93CDB7DEB723
:102A600000D00F92EF85F889ADB7BEB71296FC93F0
:102A7000EE93119714961C921E9213970E94431086
:102A80000F900F900F900F90CF91DF911F910F91AA
:102A9000FF90EF90DF90CF90BF90AF908F90089510
:102AA0002F923F924F925F926F927F928F929F925E
:102AB000AF92BF92CF92DF92EF92FF920F931F934C
:102AC000DF93CF93CDB7DEB76A970FB6F894DEBF2A
:102AD0000FBECDBF6D837E838F83988729873A870A
:102AE0004B875C87ED86FE860F87188BA98ABA8A8A
:102AF000CB8ADC8A982C28A839A881010C571F4F53
:102B000020E830E0220E331EF1016081718180E007
:102B100090E00E941B21F801208131814281538184
:102B20000E94562269837A838B839C8320E130E064
:102B3000220E331EF101808120E73FEF220E331E6B
:102B4000F101E857FF4FFA8FE98F882309F486C017
:102B5000C080D180E280F380C701B60120E030E080
:102B600040E050E00E9422221816BCF46D817E8164
:102B70008F81988529813A814B815C810E94072051
:102B80002B013C0100D00F920DB71EB70F5F1F4FF6
:102B9000A70196010E940720A9C0C701B60120E045
:102BA00030E040E050E00E947E2088237CF400D09A
:102BB0000F920DB71EB70F5F1F4F6D817E818F8102
:102BC0009885A70196010E94072066C02CE830E096
:102BD000220E331EF101C080D180E280F38024E711
:102BE0003FEF220E331EC701B60120E030E040E087
:102BF00050E00E9422221816BCF469857A858B85E4
:102C00009C8529813A814B815C810E9407202B01A0
:102C10003C0100D00F920DB71EB70F5F1F4FA701E9
:102C200096010E940720EAC0C701B60120E030E00B
:102C300040E050E00E947E2088230CF00FC100D0BD
:102C40000F920DB71EB70F5F1F4F69857A858B8571
:102C50009C85A70196010E9407208AC0E98DFA8D04
:102C6000C080D180E280F380C701B60120E030E06F
:102C700040E050E00E9422221816C4F400D00F92C7
:102C80000DB71EB70F5F1F4F6D817E818F819885B5
:102C9000A70196010E940620F8011182108213827A
:102CA000128229853A854B855C856DC0C701B601C6
:102CB00020E030E040E050E00E947E2088239CF538
:102CC0006D817E818F81988529813A814B815C81DC
:102CD0000E9407202B013C0100D00F920DB71EB7B8
:102CE0000F5F1F4FA70196010E940620F801118275
:102CF00010821382128229853A854B855C85ED848A
:102D0000FE840F851889A988BA88CB88DC88882436
:102D10000E944310EDB7FEB7128211821482138213
:102D2000C301B20145C02CE830E0220E331EF10190
:102D3000C080D180E280F38024E73FEF220E331E73
:102D4000C701B60120E030E040E050E00E942222BE
:102D500018169CF500D00F920DB71EB70F5F1F4FCE
:102D600069857A858B859C85A70196010E9406203E
:102D70009B01AC01F80111821082138212826D81D5
:102D80007E818F819885ED84FE840F851889A988BE
:102D9000BA88CB88DC8888240E944310EDB7FEB740
:102DA00012821182148213826D817E818F819885B7
:102DB00029853A854B855C8543C0C701B60120E073
:102DC00030E040E050E00E947E2088230CF046C0B6
:102DD00069857A858B859C8529813A814B815C81C7
:102DE0000E9407202B013C0100D00F920DB71EB7A7
:102DF0000F5F1F4FA70196010E9406209B01AC01A7
:102E0000F80111821082138212826D817E818F817E
:102E10009885ED84FE840F851889A988BA88CB88A7
:102E2000DC8888240E944310EDB7FEB7128211821D
:102E3000148213826D817E818F819885A301920116
:102E4000ED84FE840F851889A988BA88CB88DC8830
:102E50000E9443100F900F900F900F9022E830E0E7
:102E6000220E331EF10190822EE030E0220E331E3E
:102E7000F101808120E73FEF220E331EF101E85778
:102E8000FF4FFA8FE98F882309F4E5C0E080F180D5
:102E900002811381C801B70120E030E040E050E03A
:102EA0000E942222181624F500D00F92EDB7FEB72B
:102EB00012821182348223826D817E818F81988576
:102EC00029853A854B855C85ED84FE840F851889BC
:102ED000A988BA88CB88DC8888240E9443100DB763
:102EE0001EB70F5F1F4F6D817E818F81988533C024
:102EF000C801B70120E030E040E050E00E947E20B1
:102F0000882394F56D817E818F81988529813A810E
:102F10004B815C810E9407202B013C0100D00F9265
:102F2000EDB7FEB7128211823482238229853A8559
:102F30004B855C85ED84FE840F851889A988BA8845
:102F4000CB88DC8888240E9443100DB71EB70F5F22
:102F50001F4FC301B201E98DFA8D20813181428179
:102F600053810E940620E6C0910124573F4F3E8BBB
:102F70002D8BF901E080F18002811381C801B70136
:102F800020E030E040E050E00E942222181624F5B4
:102F900000D00F92EDB7FEB71282118234822382E5
:102FA0006D817E818F81988529853A854B855C85E9
:102FB000ED84FE840F851889A988BA88CB88DC88BF
:102FC00088240E9443100DB71EB70F5F1F4F6985FD
:102FD0007A858B859C8536C0C801B70120E030E03A
:102FE00040E050E00E947E2088230CF03CC16985BF
:102FF0007A858B859C8529813A814B815C810E94F1
:1030000007202B013C0100D00F92EDB7FEB71282D2
:103010001182348223826D817E818F819885A30104
:103020009201ED84FE840F851889A988BA88CB881F
:10303000DC8888240E9443100DB71EB70F5F1F4F16
:10304000C301B201ED89FE89208131814281538122
:103050000E940620EFC0E98DFA8DE080F1800281A8
:103060001381C801B70120E030E040E050E00E9449
:103070002222181654F56D817E818F8198852981D1
:103080003A814B815C810E9407202B013C0100D0DA
:103090000F92EDB7FEB71282118234822382298506
:1030A0003A854B855C85ED84FE840F851889A98857
:1030B000BA88CB88DC8888240E9443100DB71EB7DD
:1030C0000F5F1F4FC301B2012DC0C801B70120E03F
:1030D00030E040E050E00E947E208823ACF500D034
:1030E0000F92EDB7FEB712821182348223826D8176
:1030F0007E818F81988529853A854B855C85ED8415
:10310000FE840F851889A988BA88CB88DC88882432
:103110000E9443100DB71EB70F5F1F4F6D817E8158
:103120008F819885E98DFA8D20813181428153818B
:103130000E940720F80111821082138212822985D1
:103140003A854B855C8581C0910124573F4F388F6C
:103150002F8BF901E080F18002811381C801B70152
:1031600020E030E040E050E00E942222181664F592
:1031700069857A858B859C8529813A814B815C8123
:103180000E9407202B013C0100D00F92EDB7FEB743
:1031900012821182348223826D817E818F81988593
:1031A000A3019201ED84FE840F851889A988BA884D
:1031B000CB88DC8888240E9443100DB71EB70F5FB0
:1031C0001F4FC301B2012EC0C801B70120E030E09B
:1031D00040E050E00E947E2088230CF044C000D0E4
:1031E0000F92EDB7FEB712821182348223826D8175
:1031F0007E818F81988529853A854B855C85ED8414
:10320000FE840F851889A988BA88CB88DC88882431
:103210000E9443100DB71EB70F5F1F4F69857A8557
:103220008B859C85EF89F88D208131814281538186
:103230000E9407209B01AC01F801118210821382C9
:1032400012826D817E818F819885ED84FE840F8549
:103250001889A988BA88CB88DC880E9443100F900F
:103260000F900F900F906A960FB6F894DEBF0FBEC6
:10327000CDBFCF91DF911F910F91FF90EF90DF9025
:10328000CF90BF90AF909F908F907F906F905F9006
:103290004F903F902F900895EAE0F1E080818E7F7B
:1032A000808387B18A7F87B908959D9A18BC81E28F
:1032B00084BD83E085BD3C9A3D9A44984598579AD1
:1032C0005F98089588BD0895882311F0449A089561
:1032D00044980895882311F0459A089545980895D3
:1032E000882311F05F9808955F9A089580915F1088
:1032F0008111FFCF089580915F10882359F481E0F8
:1033000080935F1088E38093411080916F0082600A
:1033100080936F0008958093611081E08093601026
:103320000895809161100895809160100895109221
:1033300060100895609133107091341080913510B1
:10334000909136100E941D2120E030E040EA52E4C6
:103350000E948220089560913710709138108091FA
:10336000391090913A100E941D2120E030E040EA8F
:1033700052E40E948220089560913B1070913C10AD
:1033800080913D1090913E100E941D212CE137EC60
:1033900041E352E40E94822008951F920F920FB6DB
:1033A0000F9211248F9382B1887F82B91092B1005D
:1033B0008F910F900FBE0F901F9018952F923F92F4
:1033C0004F925F926F927F928F929F92AF92BF9235
:1033D000CF92DF92EF92FF920F931F93DF93CF93E1
:1033E00000D0CDB7DEB7382E462E4A832B83370167
:1033F00048018BEF9FEFAFEFBFEF680E791E8A1E7B
:103400009B1E332011F099E301C098E341109260B4
:10341000AA81A1119460BB81BB2311F088E3982796
:1034200028E3522E592682B1952D9873877C982BCC
:1034300092B9E6E0E98386E0282E86B1FB81FF237E
:1034400011F095E08927332061F080FD0AC0A98141
:10345000AA2321F4B1E05B26332403C0E981E150C3
:10346000E983442049F082FD07C0222021F4F2E0E4
:103470005F26442401C02A94332031F4442021F4EF
:103480008A81882309F479C082B1952D9770892BA0
:1034900082B98AE18A95F1F782B1982792B9C4017D
:1034A000B3010E941B215B016C012BEA3AEA4AEA54
:1034B00050E40E9456227B018C0120E030E040E87D
:1034C0005FE30E947E20882314F461E053C0C801AA
:1034D000B70120E030E04FE753E40E9422221816A3
:1034E0000CF044C0C601B50120E030E04AE754E4E6
:1034F0000E9482205B016C0120E030E04AE755E445
:103500000E9456227B018C0120E030E040E85FE31E
:103510000E947E2088231CF461E070E023C0C80173
:10352000B70120E03FEF4FE757E40E942222181630
:10353000ACF4C601B50120E030E040E251E40E9465
:1035400056220E94EF2006C080E991E00197F1F732
:103550006150704061157105B9F76FCFC801B701AF
:103560000E94EF20CB010197F1F767CFC801B701A7
:103570000E94EF206A95F1F760CF8CE0E3E3F0E181
:10358000DF011D928A95E9F70F900F900F90CF9170
:10359000DF911F910F91FF90EF90DF90CF90BF9040
:1035A000AF909F908F907F906F905F904F903F90E3
:1035B0002F900895EF92FF920F931F9380915F10C9
:1035C0008823E9F481E061E040E020E058E5E52E61
:1035D00052E0F52E012D112D0E94DE1981E061E0EF
:1035E00040E021E030E1E32E37E2F32E012D112DF2
:1035F0000E94DE191F910F91FF90EF900895FFCF69
:103600008F929F92AF92BF92CF92DF92EF92FF92F2
:103610000F931F937B018C01603426E0720720E03A
:10362000820720E0920730F430E4E32E36E0F32EF8
:10363000012D112D60E070E788E399E3A80197015F
:103640000E943423C901DA018030E0E09E07E1E006
:10365000AE07E0E0BE0730F4F90140E050E060E082
:1036600070E031C08030F0E09F07F8E0AF07F0E095
:10367000BF07A8F423E0B695A795979587952A9557
:10368000D1F7FC019C0140E050E0A3E0220F331F82
:10369000441F551FAA95D1F761E070E014C076E091
:1036A000B695A795979587957A95D1F7FC019C01DA
:1036B00040E050E066E0220F331F441F551F6A951B
:1036C000D1F762E070E080918100962F9F5F887F44
:1036D000982B90938100F0938900E09388002093C9
:1036E00053103093541040935510509356108090BF
:1036F0003F1090904010F40166A170E0882777FD9C
:103700008095982F0E941D215B016C01C801B701B3
:103710000E941B217B018C01F401628973898489D9
:1037200095890E941B219B01AC01C801B7010E9431
:1037300082209B01AC01C601B5010E9456220E9465
:10374000EF20DC01CB01182F0E946219193210F012
:1037500082E005C01B3010F083E001C084E085BD2D
:103760001F910F91FF90EF90DF90CF90BF90AF909F
:103770009F908F90089510925F10109240101092B9
:103780003F10EFE6F0E080818D7F808380E00E9433
:10379000621908951F920F920FB60F920BB60F92F7
:1037A00011242F933F934F935F936F937F938F9346
:1037B0009F93AF93BF93CF93DF93EF93FF9380914A
:1037C0005210882309F03AC381E08093521080910F
:1037D0006010882349F00E94BB1B0E94AA0D0E9422
:1037E000AF0D0E94920528C3309B05C086B1869517
:1037F000869580FD07C088E08093611081E080930A
:1038000060101AC392B120914110822F8873977C67
:10381000892B82B982B1887F822B82B98AEF80930B
:10382000B20082E08093B100789480913F10909133
:103830004010892B09F05FC00E94880DFC01909315
:10384000401080933F10009719F40E94BB1BF4C2F4
:103850008081882319F0873009F04DC061A572A5D9
:1038600083A594A560935B1070935C1080935D10AA
:1038700090935E1020E43CE940E050E02093571024
:10388000309358104093591050935A100E94001BC7
:10389000E0913F10F091401086859785A089B1890D
:1038A000B595A79597958795B095A0959095819595
:1038B0009F4FAF4FBF4F8093421090934310A09300
:1038C0004410B09345108093461090934710A093F6
:1038D0004810B093491080934A1090934B10A093D6
:1038E0004C10B0934D1010924E1010924F10109239
:1038F000501010925110C0913F10D091401088810B
:10390000823009F48AC2833038F4882309F45EC017
:10391000813009F091C27FC2843009F484C28430BE
:1039200008F47FC2873009F087C2C154DF4F688135
:103930007981CF5BD04080E090E020914E103091B3
:103940004F1040915010509151100E9415232E8518
:103950003F85488959890E943423C901DA01322FF1
:103960003770CE53DF4F2881C25CD04043E0B6951C
:10397000A795979587954A95D1F7E82FF0E02223F0
:1039800061F4EC0FFD1F87AD90E002C0959587951F
:103990003A95E2F780FF12C00BC0EC0FFD1F87AD18
:1039A00090E002C0959587953A95E2F780FD06C0B4
:1039B000CF53DF4F9881C15CD04001C090E08EA111
:1039C000981721F09EA3892F0E946219E0913F1061
:1039D000F091401025852093411040914210509164
:1039E0004310609144107091451081819281A381B0
:1039F000B481480F591F6A1F7B1F40934210509398
:103A00004310609344107093451014161506160663
:103A10001706BCF521602093411086859785A08903
:103A2000B189481B590B6A0B7B0B40934210509392
:103A30004310609344107093451026952695269563
:103A400020FF0CC08091331090913410A09135105C
:103A5000B09136100197A109B1090BC080913310C4
:103A600090913410A0913510B09136100196A11D9F
:103A7000B11D8093331090933410A0933510B09300
:103A80003610409146105091471060914810709147
:103A9000491085819681A781B085480F591F6A1FFB
:103AA0007B1F4093461050934710609348107093CB
:103AB00049101416150616061706C4F52091411074
:103AC00022602093411086859785A089B189481B83
:103AD000590B6A0B7B0B4093461050934710609331
:103AE00048107093491022952F7020FF0CC08091D0
:103AF000371090913810A0913910B0913A10019779
:103B0000A109B1090BC08091371090913810A09194
:103B10003910B0913A100196A11DB11D8093371054
:103B200090933810A0933910B0933A1040914A10F6
:103B300050914B1060914C1070914D108185928581
:103B4000A385B485480F591F6A1F7B1F40934A10F5
:103B500050934B1060934C1070934D101416150633
:103B600016061706CCF520914110246020934110D1
:103B700086859785A089B189481B590B6A0B7B0BF9
:103B800040934A1050934B1060934C1070934D101B
:103B900022952695277020FF0CC080913B109091B4
:103BA0003C10A0913D10B0913E100197A109B109C0
:103BB0000BC080913B1090913C10A0913D10B091B2
:103BC0003E100196A11DB11D80933B1090933C10B7
:103BD000A0933D10B0933E1020914E1030914F10A5
:103BE00040915010509151102F5F3F4F4F4F5F4FFA
:103BF00020934E1030934F1040935010509351101B
:103C00008091411098E3892780934110868597859C
:103C1000A089B189281739074A075B0708F006C150
:103C200085A996A9A7A9B0AD281739074A075B0748
:103C300008F054C020915310309154104091551009
:103C4000509156108091571090915810A091591092
:103C5000B0915A10280F391F4A1F5B1F209357102D
:103C6000309358104093591050935A10213888E3DC
:103C7000380781E0480780E0580708F4DDC0205885
:103C80003843414050402093571030935810409390
:103C9000591050935A1081A992A9A3A9B4A92091AF
:103CA0005B1030915C1040915D1050915E10820F5E
:103CB000931FA41FB51F80935B1090935C10A0937B
:103CC0005D10B0935E102289338944895589281785
:103CD00039074A075B0708F077C06EC081AD92AD27
:103CE000A3ADB4AD281739074A075B0769F480E430
:103CF0009CE9A0E0B0E08093571090935810A093F7
:103D00005910B0935A1098C0281739074A075B0713
:103D100008F463C020915310309154104091551015
:103D2000509156108091571090915810A0915910B1
:103D3000B0915A10280F391F4A1F5B1F209357104C
:103D4000309358104093591050935A10213888E3FB
:103D5000380781E0480780E0580708F46DC0205814
:103D600038434140504020935710309358104093AF
:103D7000591050935A1080915B1090915C10A09153
:103D80005D10B0915E1021A932A943A954A9821BEC
:103D9000930BA40BB50B80935B1090935C10A093D6
:103DA0005D10B0935E1025A536A547A550A98217D2
:103DB0009307A407B50740F420935B1030935C1081
:103DC00040935D1050935E1060915B1070915C1099
:103DD00080915D1090915E101BC0228933894489C7
:103DE000558980915B1090915C10A0915D10B0910D
:103DF0005E1082179307A407B507F1F020935B10BC
:103E000030935C1040935D1050935E10CA01B9016D
:103E10000E94001B11C081E001C080E00E94641973
:103E200005C081E001C080E00E946A191092401034
:103E300010923F100E949B0D10925210FF91EF9133
:103E4000DF91CF91BF91AF919F918F917F916F91B2
:103E50005F914F913F912F910F900BBE0F900FBE2E
:103E60000F901F9018956F927F928F929F92AF92B2
:103E7000BF92CF92DF92EF92FF920F931F935B015D
:103E80006C0139014A0180915F10882309F05BC001
:103E9000C601B50120E030E040EA52E40E9456221B
:103EA00020E030E040E05FE30E9407200E945821BC
:103EB0000E94EA2060933310709334108093351081
:103EC00090933610C401B30120E030E040EA52E4A0
:103ED0000E94562220E030E040E05FE30E9407208D
:103EE0000E9458210E94EA20609337107093381086
:103EF0008093391090933A10C801B7012CE137EC48
:103F000041E352E40E94562220E030E040E05FE3CB
:103F10000E9407200E9458210E94EA2060933B10D3
:103F200070933C1080933D1090933E101F910F9121
:103F3000FF90EF90DF90CF90BF90AF909F908F90C9
:103F40007F906F900895FFCFEF92FF920F931F9392
:103F500081B18F6381B982B1807C886382B9E1E8E5
:103F6000F0E080818F7E8083808188608083E0E8BC
:103F7000F0E080818D7F808380818E7F808380814F
:103F80008F73808380818F7C80831092B000109229
:103F9000B100E0E7F0E080818160808360E476E05A
:103FA00080E090E00E94001B8CE0E3E3F0E1DF01A1
:103FB0001D928A95E9F760E070E080EA90E49B0149
:103FC000AC010F2EF0E0EF2EF0E0FF2EF0E00F2F0F
:103FD000F0E01F2FF02D0E94331F10925710109207
:103FE00058101092591010925A10109240101092BE
:103FF0003F101092601010926110109252100E94A7
:10400000BB1B1F910F91FF90EF9008955058BB2755
:10401000AA270ED0C6C1B7D130F0BCD120F031F400
:104020009F3F11F41EF4ACC10EF4E095E7FB77C19D
:10403000E92FC8D180F3BA17620773078407950781
:1040400018F071F49EF5F7C10EF4E0950B2EBA2F1F
:10405000A02D0B01B90190010C01CA01A00111248E
:10406000FF27591B99F0593F50F4503E68F11A163A
:10407000F040A22F232F342F4427585FF3CF4695CB
:1040800037952795A795F0405395C9F77EF41F16ED
:10409000BA0B620B730B840BBAF09150A1F0FF0FB7
:1040A000BB1F661F771F881FC2F70EC0BA0F621FA3
:1040B000731F841F48F4879577956795B795F79593
:1040C0009E3F08F0B3CF9395880F08F09927EE0F25
:1040D00097958795089598D180F09F3740F4911176
:1040E0000EF4AAC160E070E080E89FE3089526F036
:1040F0001B16611D711D811D18C132C1ECD008F461
:1041000081E008950CD04DC145D140F03CD130F054
:1041100021F45F3F19F003C151118EC131C152D159
:1041200098F39923C9F35523B1F3951B550BBB277E
:10413000AA2762177307840738F09F5F5F4F220F2B
:10414000331F441FAA1FA9F333D00E2E3AF0E0E824
:1041500030D091505040E695001CCAF729D0FE2F70
:1041600027D0660F771F881FBB1F26173707480702
:10417000AB07B0E809F0BB0B802DBF01FF279358B8
:104180005F4F2AF09E3F510568F0C9C055C15F3F9F
:10419000ECF3983EDCF3869577956795B795F795A0
:1041A0009F5FC9F7880F911D9695879597F9089598
:1041B000E1E0660F771F881FBB1F62177307840734
:1041C000BA0720F0621B730B840BBA0BEE1F88F743
:1041D000E095089504D06894B1112EC10895FAD0E5
:1041E00088F09F5790F0B92F9927B751A0F0D1F0E0
:1041F000660F771F881F991F1AF0BA95C9F712C06A
:10420000B13081F018D1B1E0089515C1672F782F32
:104210008827B85F39F0B93FCCF3869577956795D5
:10422000B395D9F73EF490958095709561957F4F41
:104230008F4F9F4F0895E89409C097FB3EF49095E7
:104240008095709561957F4F8F4F9F4F9923A9F06F
:10425000F92F96E9BB279395F695879577956795FE
:10426000B795F111F8CFFAF4BB0F11F460FF1BC042
:104270006F5F7F4F8F4F9F4F16C0882311F096E9D5
:1042800011C0772321F09EE8872F762F05C0662383
:1042900071F096E8862F70E060E02AF09A95660F3C
:1042A000771F881FDAF7880F9695879597F90895F5
:1042B000ABD080F09F3740F491110EF0BDC060E0AC
:1042C00070E080E89FEB089526F41B16611D711DB8
:1042D000811D2BC045C0990F0008550FAA0BE0E8BF
:1042E000FEEF16161706E807F907C0F012161306B8
:1042F000E407F50798F0621B730B840B950B39F4F8
:104300000A2661F0232B242B252B21F408950A265D
:1043100009F4A140A6958FEF811D811D089597F99D
:104320009F6780E870E060E00895882371F4772348
:1043300021F09850872B762F07C0662311F4992718
:104340000DC09051862B70E060E02AF09A95660FC0
:10435000771F881FDAF7880F9695879597F9089544
:104360009F3F49F0915028F4869577956795B795CA
:104370009F5F80389F4F880F9695879597F908958E
:104380009FEF80EC089500240A941616170618066D
:104390000906089500240A94121613061406050649
:1043A0000895092E0394000C11F4882352F0BB0FDA
:1043B00040F4BF2B11F460FF04C06F5F7F4F8F4F3D
:1043C0009F4F089557FD9058440F551F59F05F3F78
:1043D00071F04795880F97FB991F61F09F3F79F027
:1043E00087950895121613061406551FF2CF4695A9
:1043F000F1DF08C0161617061806991FF1CF86952B
:104400007105610508940895E5DFA0F0BEE7B917CE
:1044100088F4BB279F3860F41616B11D672F782FDC
:104420008827985FF7CF869577956795B11D939507
:104430009639C8F30895E894BB2766277727CB0100
:1044400097F9089548DF08F48FEF0895C3DF58F116
:104450009E5758F19851A0F0E9F0983020F5092EB8
:104460009927660F771F881F991F0A94D1F712C0EA
:10447000062E672F782F8827985F11F4000C07C04D
:10448000993FB4F38695779567959395D9F7611D14
:10449000711D811D3EF490958095709561957F4FBB
:1044A0008F4F9F4F08956894C7CFC5CF0BD079CF5A
:1044B0006ADF28F06FDF18F0952309F030CF60CF66
:1044C0001124BACF7FDFA0F3959FD1F3950F50E071
:1044D000551F629FF001729FBB27F00DB11D639FB6
:1044E000AA27F00DB11DAA1F649F6627B00DA11D5C
:1044F000661F829F2227B00DA11D621F739FB00D02
:10450000A11D621F839FA00D611D221F749F332771
:10451000A00D611D231F849F600D211D822F762F0A
:104520006A2F11249F5750408AF0E1F088234AF007
:10453000EE0FFF1FBB1F661F771F881F9150504053
:10454000A9F79E3F510570F0EACE76CF5F3FECF3BE
:10455000983EDCF3869577956795B795F795E7953F
:104560009F5FC1F7FE2B880F911D9695879597F950
:10457000089511F40EF404CFF3CE2CDFD0F3992379
:10458000D9F3CEF39F57550B87FF48D05695979593
:10459000B0E020F4660F771F881FBB1F1F930F9397
:1045A00000249001A0018001F001A0E80E0F1F1F60
:1045B0000A1E511D601B710B8009B50B48F4600F7A
:1045C000711F801DB51F0E1B1F0B0A0A510907C062
:1045D0002E0F3F1F4A1F0E0F1F1F0A1E511D660F71
:1045E000771F881FBB1FA695F795E795F8F6061766
:1045F000170708065B07211D311D411D0F911F91F3
:10460000B901842F9158880F969587950895FCDEFF
:1046100020F09F3708F410CF88CEA2CE91505040A2
:10462000660F771F881FD2F70895629FD001739F8E
:10463000F001829FE00DF11D649FE00DF11D929F3E
:10464000F00D839FF00D749FF00D659FF00D99277D
:10465000729FB00DE11DF91F639FB00DE11DF91FA1
:10466000BD01CF0111240895A1E21A2EAA1BBB1B84
:10467000FD010DC0AA1FBB1FEE1FFF1FA217B3072E
:10468000E407F50720F0A21BB30BE40BF50B661F44
:10469000771F881F991F1A9469F760957095809508
:1046A00090959B01AC01BD01CF010895911106C009
:1046B000803219F089508550D0F7089599278827BE
:1046C00008952F923F924F925F926F927F928F92B6
:1046D0009F92AF92BF92CF92DF92EF92FF920F9391
:1046E0001F93CF93DF93CDB7DEB7CA1BDB0B0FB69B
:1046F000F894DEBF0FBECDBF19942A883988488848
:104700005F846E847D848C849B84AA84B984C884ED
:10471000DF80EE80FD800C811B81AA81B981CE0FE4
:10472000D11D0FB6F894DEBF0FBECDBFED010895C9
:04473000F894FFCF2B
:10473400FE210050004C0052004200490054004F3A
:1047440000202D3E20636865636B73756D206F7563
:104754007473696465205B3132382C3235355D0001
:104764005E004E0045005500570044004C31004C9B
:084774003300580059000A004F
:00000001FF
